:020000040800F2
:100000004005002001010008651E0008671E000869
:100010006B1E00086F1E0008731E00080000000021
:10002000000000000000000000000000771E000833
:10003000791E0008000000007B1E00087D1E0008DD
:100040001B0100081B0100081B0100081B01000820
:100050001B0100081B0100081B0100081B01000810
:100060001B0100081B0100081B0100081B01000800
:100070001B0100081B0100081B0100081B010008F0
:100080001B0100081B0100081B0100081B010008E0
:100090001B0100081B0100081B0100081B010008D0
:1000A0001B0100081B0100081B0100081B010008C0
:1000B0001B0100081B0100081B0100081B010008B0
:1000C0001B0100081B0100081B0100081B010008A0
:1000D0001B0100081B0100081B0100081B01000890
:1000E0001B0100081B0100081B010008DFF80CD0F1
:1000F00006F044FD00480047291C00084005002088
:100100000648804706480047FEE7FEE7FEE7FEE7B1
:10011000FEE7FEE7FEE7FEE7FEE7FEE70302000874
:10012000ED0000080CB50020019000906C480068BC
:1001300040F480306A49086000BF6948006800F4F4
:10014000003000900198401C0190009818B9019867
:10015000B0F5A06FF1D16248006800F4003010B132
:100160000120009001E0002000900098012843D178
:100170005C48006840F010005A4908600846006872
:1001800020F0030008600846006840F002000860A4
:1001900053484068524948600846406848600846ED
:1001A000406840F4806048600846406820F47C1055
:1001B00048600846406840F4E81048600846006817
:1001C00040F08070086000BF4548006800F0007093
:1001D0000028F9D04248406820F0030040494860B8
:1001E0000846406840F00200486000BF3C48406854
:1001F00000F00C000828F9D10CBD10B5FFF792FFF4
:1002000010BD10B53648006840F001003449086060
:10021000084640683449084031494860084600684B
:10022000324908402E4908600846006820F48020C2
:1002300008600846406820F4FE0048604FF41F0044
:100240008860FFF7DAFF4FF000602949086010BDB1
:1002500010B5002100200022214B5B6803F00C0147
:1002600021B1042906D0082928D107E0214B224CCE
:10027000236027E01F4B204C236023E0184B5B6872
:1002800003F47010164B5B6803F48032022303EB17
:10029000904022B9194B4343174C23600DE0104B9B
:1002A0005B6803F4003323B1144B4343124C2360C7
:1002B00003E0104B4343104C236003E00D4B0E4C06
:1002C000236000BF00BF064B5B68C3F303130C4CF5
:1002D000E15C094B1B68CB40074C236010BD00005C
:1002E00000100240002002400000FFF8FFFFF6FE71
:1002F00008ED00E000127A000000002000093D0037
:100300000400002010B50446CC48844208D10121E5
:10031000042000F02DFB0021042000F029FB46E022
:10032000C748844208D10121082000F021FB0021A8
:10033000082000F01DFB3AE0C248844208D10121A8
:10034000102000F015FB0021102000F011FB2EE022
:10035000BD48844208D10121202000F009FB002182
:10036000202000F005FB22E0B848844208D101219A
:10037000402000F0FDFA0021402000F0F9FA16E0DC
:10038000B348844208D10121802000F0F1FA002115
:10039000802000F0EDFA0AE0AE48844207D1012146
:1003A000801500F0E5FA0021A01500F0E1FA10BD7B
:1003B00010B50121084600F0DBFA0021012000F011
:1003C000D7FA10BD2DE9F041024600250026002095
:1003D00000230024002791F803C00CF00F0591F8CA
:1003E00003C00CF0100CBCF1000F03D091F802C058
:1003F0004CEA050591F800C0BCF1000F31D014683B
:1004000000202BE04FF0010C0CFA00F3B1F800C013
:100410000CEA03069E4220D183004FF00F0C0CFA29
:1004200003F7BC4305FA03FC4CEA040491F803C04B
:10043000BCF1280F06D14FF0010C0CFA00FCC2F8F9
:1004400014C00AE091F803C0BCF1480F05D14FF089
:10045000010C0CFA00FCC2F810C0401C0828D1D3D3
:100460001460B1F800C0BCF1FF0F34DD5468002007
:100470002EE000F1080C4FF0010808FA0CF3B1F877
:1004800000C00CEA03069E4221D183004FF00F0CFE
:100490000CFA03F7BC4305FA03FC4CEA040491F898
:1004A00003C0BCF1280F05D100F1080C08FA0CF8C4
:1004B000C2F8148091F803C0BCF1480F07D100F1D5
:1004C000080C4FF0010808FA0CF8C2F81080401C24
:1004D0000828CED35460BDE8F0814FF6FF7101804B
:1004E000022181700421C170704702460020936888
:1004F0000B400BB1012000E00020704701468868E6
:1005000080B2704702460020D3680B400BB1012037
:1005100000E0002070470146C86880B27047016162
:100520007047416170470AB1016100E04161704765
:10053000C16070474FF480320A43826181618261F9
:1005400082698269704702460020434B18684FF663
:100550008073184040EA021008433F4B1860704710
:100560003E49C8617047F0B50A46002300240021C7
:10057000002500F00046B6F1004F02D1364EF16979
:1005800001E0354E7168C0F3034583B200F44016B4
:10059000B6F5401F08D121F070612F4E766826F025
:1005A00070662D4F7E6012E000F48016B6F5801F55
:1005B00006D1032606FA05F4A14341F0706106E076
:1005C000460D360103FA06F6B14341F0706122B1DF
:1005D000460D360103FA06F6314300F00046B6F147
:1005E000004F02D11C4EF16101E01B4E7160F0BD65
:1005F00030B500228B071C0F0F2303FA04F2164BB1
:1006000008338C1053F824309343134C08348D1066
:1006100044F8253023468C1053F824308C07240FDF
:1006200000FA04F423430C4C08348D1044F82530B0
:1006300030BD0A49DC310860704700000008014005
:10064000000C01400010014000140140001801405E
:10065000001C014000200140000001400000204239
:10066000DF48006840F00100DD4908600846406846
:10067000DC490840DA49486008460068DA49084021
:10068000D74908600846006820F4802008600846C2
:10069000406820F4FE0048604FF41F0088607047F7
:1006A000CF49096821F48031CD4A116011460968AB
:1006B00021F480211160B0F5803F03D0B0F5802F88
:1006C0000ED106E0C649096841F48031C44A116080
:1006D00007E0C349096841F4A021C14A116000E064
:1006E00000BF00BF704710B5014600220023002064
:1006F0004A11012A02D1BA4C236806E0022A02D12B
:10070000B74C236A01E0B64C636A01F01F02012472
:1007100094401C400CB1012000E0002010BD38B511
:10072000002000900024002500BF3120FFF7DBFFF0
:1007300005460098401C00900098B0F5A06F01D0CD
:10074000002DF2D03120FFF7CEFF08B1012400E0E8
:100750000024204638BD01460020A14A106820F040
:10076000F80040EAC10010607047A0490860704777
:10077000024600209A4B586820F47C1042EA01039C
:100780001843974B58607047984908667047014670
:100790000020934A506820F00300084350607047DF
:1007A0008F48406800F00C007047014600208C4ADA
:1007B000506820F0F0000843506070470146002068
:1007C000874A506820F4E060084350607047014653
:1007D0000020834A506820F4605040EAC100506015
:1007E000704729B17E4A527A02437D4B5A7204E027
:1007F0007B4A527A82437A4B5A7270477B49D8318E
:100800000860704701460020754A506820F4404057
:100810000843506070470021714A20321170704ABD
:1008200082F82010012802D004280AD104E0012116
:100830006B4A2032117005E00521694A203211709F
:1008400000E000BF00BF7047694908607047644915
:10085000096A0143624A1162704765494439086078
:10086000704730B500210022002400235C4D6D68E4
:1008700005F00C0121B1042905D0082923D105E098
:100880005C4D056022E05B4D05601FE0544D6D68D6
:1008900005F47012524D6D6805F48034022505EBA5
:1008A00092421CB9544D554305600BE04C4D6D68A8
:1008B00005F400351DB1504D5543056002E04D4D26
:1008C0005543056002E04B4D056000BF00BF444D3D
:1008D0006D6805F0F0010909484D6B5C0568DD4065
:1008E00045603F4D6D6805F4E061090A434D6B5C5E
:1008F0004568DD4085603A4D6D6805F46051C90A70
:100900003E4D6B5C4568DD40C560354D6D6805F456
:100910004041890B3A4D6B5CC568B5FBF3F5056149
:1009200030BD29B12E4A526902432D4B5A6104E071
:100930002B4A526982432A4B5A61704729B1284A8F
:1009400092690243264B9A6104E0254A92698243E8
:10095000234B9A61704729B1214AD2690243204B47
:10096000DA6104E01E4AD26982431D4BDA617047A6
:1009700029B11B4AD2680243194BDA6004E0184AD5
:10098000D2688243164BDA60704729B1144A126963
:100990000243134B1A6104E0114A12698243104B5F
:1009A0001A61704712494039086070470F49C8649E
:1009B00070470B49C87170470948406A40F0807021
:1009C00007494862704701460020054A92680A407C
:1009D0000AB1012000E00020704701498872704789
:1009E000001002400000FFF8FFFFF6FE0000424248
:1009F0008004424200127A0000093D0014000020E9
:100A00002400002010B50446FE48844208D101218C
:100A1000C014FFF7ADFF0021E014FFF7A9FFC4E009
:100A2000B4F1804F08D101210846FFF7AEFF002145
:100A30000120FFF7AAFFB8E0F348844208D1012162
:100A40000220FFF7A2FF00210220FFF79EFFACE08B
:100A5000EE48844208D101210420FFF796FF0021CF
:100A60000420FFF792FFA0E0E948844208D1012169
:100A70000820FFF78AFF00210820FFF786FF94E097
:100A8000E448844208D101211020FFF77EFF0021B5
:100A90001020FFF77AFF88E0DF48844208D1012167
:100AA0002020FFF772FF00212020FFF76EFF7CE07F
:100AB000DA48844208D101214014FFF759FF002190
:100AC0006014FFF755FF70E0D548844209D1012139
:100AD000C804FFF74DFF00214FF40020FFF748FF47
:100AE00063E0D048844209D101210805FFF740FFA7
:100AF00000214FF48010FFF73BFF56E0CA488442C4
:100B000009D101214805FFF733FF00214FF4001000
:100B1000FFF72EFF49E0C548844208D1012140205B
:100B2000FFF733FF00214020FFF72FFF3DE0C048D3
:100B3000844208D101218020FFF727FF0021802077
:100B4000FFF723FF31E0BB48844208D10121801523
:100B5000FFF71BFF0021A015FFF717FF25E0B648A0
:100B6000844209D101210804FFF702FF00214FF45C
:100B70008030FFF7FDFE18E0B048844209D1012122
:100B80004804FFF7F5FE00214FF40030FFF7F0FEB8
:100B90000BE0AB48844208D101218804FFF7E8FE4E
:100BA00000214FF48020FFF7E3FE10BD00220288F1
:100BB000944B98420ED0994B98420BD0B0F1804F95
:100BC00008D0914B984205D0904B984202D0904B60
:100BD000984204D14FF68F731A404B881A438D4BBD
:100BE000984207D08C4B984204D04FF6FF431A40EE
:100BF000CB881A4302808B8883850B880385814BC1
:100C000098420BD0854B984208D08B4B984205D028
:100C10008A4B984202D08A4B984201D10B7A0386C4
:100C200001238382704770B5002400220023058CC5
:100C30004FF6FE7635400584028C8388048B4FF690
:100C40008F752C40B51E2C400D882C43751E2A40F4
:100C50000D892A434D882A436A4DA8420BD06F4D17
:100C6000A84208D0744DA84205D0744DA84202D0C5
:100C7000734DA84213D14FF6F7752A404D892A4388
:100C80004FF6FB752A408D882A434FF6FF652B40AF
:100C90004FF6FF552B408D892B43CD892B43838005
:100CA0000483CD888586028470BD70B5002400223F
:100CB0000023058C4FF6EF7635400584028C83883F
:100CC000048B48F6FF752C404FF6FF452C400D88ED
:100CD0004FF6FF7606EA05252C434FF6DF752A40CE
:100CE0000D8906EA05152A434D8806EA05152A43AB
:100CF000444DA84202D0494DA8421DD14FF67F7500
:100D00002A404D894FF6FF7606EA05152A434FF62D
:100D1000BF752A408D8806EA05152A434FF6FF3530
:100D20002B404FF2FF752B408D8906EA85052B433A
:100D3000CD8906EA85052B4383800483CD8805870A
:100D4000028470BD70B5002400220023058C4FF68C
:100D5000FF6635400584028C8388848B4FF68F753F
:100D60002C404FF6FC752C400D882C434FF6FF5558
:100D70002A400D894FF6FF7606EA05252A434D885D
:100D800006EA05252A431F4DA84202D0234DA8425A
:100D90001DD14FF2FF752A404D894FF6FF7606EAC6
:100DA00005252A434FF6FF352A408D8806EA05259A
:100DB0002A434EF6FF752B404DF6FF752B408D896B
:100DC00006EA05152B43CD8906EA05152B438380DA
:100DD0008483CD888587028470BD70B5002200238E
:100DE0000024058C4EF6FF7635400584038C8488FC
:100DF000828B48F6FF752A404FF6FF452A400D8842
:100E000020E00000002C01400004004000080040E9
:100E1000000C00400010004000140040003401406D
:100E2000004C0140005001400054014000180040B7
:100E3000001C0040002000400040014000440140F0
:100E4000004801404FF6FF7606EA05252A434DF695
:100E5000FF752B400D8906EA05352B434D8806EAC0
:100E600005352B43FA4DA84202D0FA4DA84208D1CD
:100E70004BF6FF752C408D894FF6FF7606EA8515F7
:100E80002C4384808283CD88A0F84050038470BDB9
:100E9000828B4FF2FF331A408283828B4FF6FF73AF
:100EA00003EA01231A4382837047F0B50C461546C6
:100EB000002200210026078C4EF6FF7C07EA0C0773
:100EC0000784828B018C4FF6FF7707EA043640F6E1
:100ED000FF473A404FF6FF7707EA05273A434FF6B8
:100EE000FF7707EA03373A43D94FB8420ED0D94FBC
:100EF000B8420BD0B0F1804F08D0D74FB84205D0E0
:100F0000D64FB84202D0D64FB84206D14DF6FF7741
:100F1000394046F48057394305E047F6FF573940DA
:100F200044F48057394382830184F0BD828B4FF6AD
:100F3000F3731A408283828B0A4382837047F0B531
:100F40000C461546002200210026078C4FF6FF6C48
:100F500007EA0C070784828B018C4FF6FF7707EABC
:100F600004264FF60C773A404FF6FF7707EA03174F
:100F70002F433A43B64FB8420ED0B64FB8420BD0CB
:100F8000B0F1804F08D0B44FB84205D0B34FB8424B
:100F900002D0B34FB84206D14FF6FF57394046F45E
:100FA0008077394305E04FF2FF57394044F48077AA
:100FB000394382830184F0BD028B4FF2FF331A4024
:100FC0000283028B4FF6FF7303EA01231A43028365
:100FD0007047F0B50C461546002200210026078C0C
:100FE0004FF6EF7C07EA0C070784028B018C4FF663
:100FF000FF7707EA041640F6FF473A404FF6FF77BF
:1010000007EA03373A434FF6FF7707EA05273A43E3
:101010008F4FB8420ED08F4FB8420BD0B0F1804FF7
:1010200008D08D4FB84205D08C4FB84202D08C4FBB
:10103000B84206D14FF6DF77394046F01007394302
:1010400005E04FF65F77394044F0100739430283DB
:101050000184F0BD028B4FF6F3731A400283028BBA
:101060000A4302837047F0B50C4615460022002162
:10107000068C4FF6FE773E400684028B018C4FF6BD
:101080000C7632407E1C06EA03162E433243704E25
:10109000B0420ED06F4EB0420BD0B0F1804F08D0AE
:1010A0006D4EB04205D06D4EB04202D06C4EB04293
:1010B00006D14FF6FD76314044F00106314305E09C
:1010C0004FF6F576314044F0010631430283018446
:1010D000F0BD70B505460C465D4885420ED05D48B2
:1010E00085420BD0B5F1804F08D05B48854205D0D2
:1010F0005A48854202D05A48854200D100E000BFDC
:10110000208850B92389A28861882846FFF7ABFF61
:10111000E1882846FFF79EFF25E0208804280AD1B1
:101120002389A28861882846FFF753FFE188284673
:10113000FFF742FF17E0208808280AD12389A288F8
:1011400061882846FFF7FBFEE1882846FFF7EEFEA0
:1011500009E02389A28861882846FFF7A6FEE18876
:101160002846FFF795FE70BD2DE9F04105460C4677
:1011700000260127608808B9022600E00026A08822
:10118000012801D1022700E001272088A0B9238986
:10119000A28861882846FFF766FFE1882846FFF7A6
:1011A00059FF23893A4631462846FFF712FFE18866
:1011B0002846FFF701FF13E02389A28861882846AB
:1011C000FFF707FFE1882846FFF7F6FE23893A4636
:1011D00031462846FFF747FFE1882846FFF73AFFE8
:1011E000BDE8F0810A884B881A438B881A43CB8864
:1011F0001A430B891A434B891A438B891A43A0F867
:10120000442070474FF6FF71818000210180C1802A
:101210004180017270470021018041808180C1803E
:10122000018141818181C18170470021018041801C
:10123000012181800021C18001817047002101804E
:1012400041808180C180018141818181704700009E
:10125000002C014000340140000400400008004020
:10126000000C004021B1028842F00102028004E03B
:1012700002884FF6FE731A400280704731B1B0F811
:10128000442042F40042A0F8442005E0B0F8442095
:10129000C2F30E02A0F8442070471AB183890B43B1
:1012A000838102E083898B43838170478182704709
:1012B00041EA0203A0F8483070471AB183890B4312
:1012C000838102E083898B438381704701894FF6D4
:1012D000F8721140018170470A46002101894FF6DA
:1012E0008F73194011430181704730B504460D4694
:1012F00029462046FFF7F0FF208940F007002081B3
:1013000030BD2DE9F04104460D4616461F46602DBE
:1013100006D13B46012231462046FFF75AFE05E042
:101320003B46012231462046FFF79DFE29462046D6
:10133000FFF7D2FF208940F007002081BDE8F0814F
:1013400030B50C4600210189C9B24FF6FF7505EA98
:101350000325154325432943018130BD2DE9F04183
:1013600005460E4617469846002443463A463146FF
:101370002846FFF7E5FF2C894FF6F870044044F04B
:1013800007044FF68F70044044F070042C81BDE8D0
:10139000F081F0B504460D4616461F463B463246E0
:1013A00029462046FFF7CCFF208940F48040208169
:1013B000F0BD0185828270470A46002101884FF600
:1013C0008F731940114301807047F0B50C461546E4
:1013D0001E460021002200230189028B038C4FF658
:1013E000F877394021434FF6FC473A4040F2011765
:1013F0003A434FF6DD773B404FF6FF7707EA061793
:101400002F433B43018102830384F0BD0A46002140
:10141000018B4FF68F7319401143018370470A46C1
:101420000021018B48F6FF7319404FF6FF7303EA62
:1014300002231943018370470A460021818B4FF62E
:101440008F7319401143818370470A460021818BB5
:1014500048F6FF7319404FF6FF7303EA022319435E
:101460008183704721B1028842F08002028004E04B
:1014700002884FF67F731A400280704721B182883C
:1014800042F00402828004E082884FF6FB731A4027
:101490008280704721B1828842F00802828004E095
:1014A00082884FF6F7731A408280704721B1828894
:1014B00042F00102828004E082884FF6FE731A40F7
:1014C000828070470A460021018B4FF6F77319405E
:1014D0001143018370470A460021018B4FF2FF73CD
:1014E00019404FF6FF7303EA022319430183704743
:1014F0000A460021818B4FF6F7731940114381830F
:1015000070470A460021818B4FF2FF7319404FF656
:10151000FF7303EA02231943818370470A460021BF
:10152000018B4FF6FB7319401143018370470A4644
:101530000021018B4FF6FF3319404FF6FF7303EA8A
:1015400002231943018370470A460021818B4FF61D
:10155000FB7319401143818370470A460021818B38
:101560004FF6FF3319404FF6FF7303EA0223194386
:10157000818370470A460021018B4FF67F73194023
:101580001143018370470A460021018BC1F30E010C
:101590004FF6FF7303EA02231943018370470A469B
:1015A0000021818B4FF67F7319401143818370476F
:1015B0000A460021818BC1F30E014FF6FF7303EA47
:1015C00002231943818370470A460021018C4FF69C
:1015D000FD7319401143018470470A460021018CB4
:1015E0004FF6F77319401143018470470A460021F2
:1015F000018C4FF6DF7319404FF6FF7303EA0213B5
:101600001943018470470A460021018C4FF67F730D
:1016100019404FF6FF7303EA021319430184704720
:101620000A460021018C4FF6FF5319404FF6FF7315
:1016300003EA02231943018470470A460021018C02
:101640004FF2FF7319404FF6FF7303EA0223194369
:10165000018470470A460021018C4DF6FF73194042
:101660004FF6FF7303EA023319430184704730B524
:10167000002301248C40A3B2048C9C430484048C7A
:1016800002FA01F5ADB22C43048430BD30B500231D
:1016900004248C40A3B2048C9C430484048C02FA7E
:1016A00001F5ADB22C43048430BD70B50346002073
:1016B00000241846183001258D40ACB21D8CA5437E
:1016C0001D8409B1082909D100EB6100056825F0E6
:1016D000700505600568154305600EE00D1FC5F334
:1016E0004E052844056825F4E045056005684FF679
:1016F000FF7606EA02263543056070BD21B10288F7
:1017000042F00202028004E002884FF6FD731A40A4
:101710000280704721B1028842F00402028004E096
:1017200002884FF6FB731A400280704721B182880D
:1017300042F08002828004E082884FF67F731A4074
:101740008280704702884FF6F7731A400280028841
:101750000A430280704782884FF68F731A40828056
:1017600082880A438280704702894FF6F8731A40D4
:10177000028102890A430281704702894FF67F7312
:101780001A40028102890A430281704781847047AE
:1017900081857047818670470187704781877047D0
:1017A000A0F84010704702884FF6FF431A400280AD
:1017B00002880A43028070470146888E70470146BE
:1017C000088F70470146888F70470146B1F8400086
:1017D00070470146888C70470146088D7047024665
:1017E0000020138A0B400BB1012000E0002070475D
:1017F000CA430282704730B502460020002300240D
:10180000158A05EA0103958905EA010413B10CB1B3
:10181000012000E0002030BDCA4302827047000072
:1018200010B50446FB48844209D101218803FFF723
:101830009FF800214FF48040FFF79AF832E0F64815
:10184000844209D101214804FFF79FF800214FF499
:101850000030FFF79AF825E0F048844209D10121D1
:101860008804FFF792F800214FF48020FFF78DF8ED
:1018700018E0EB48844209D10121C804FFF785F83C
:1018800000214FF40020FFF780F80BE0E548844288
:1018900008D101210805FFF778F800214FF48010E6
:1018A000FFF773F810BD2DE9F04786B005460E46E8
:1018B0000024A24600BFA1460027B08900B100BFA6
:1018C0002F462C8A4CF6FF700440F08804432C828B
:1018D000AC894EF6F3100440B08831890843718911
:1018E00008430443AC81AC8A4FF6FF400440B08902
:1018F0000443AC8201A8FEF7B4FFC648874202D178
:10190000DDF810A001E0DDF80CA0A88900F400408B
:1019100040B10AEBCA0000EB0A1031684900B0FB85
:10192000F1F807E00AEBCA0000EB0A103168890001
:10193000B0FBF1F86420B8FBF0F004012009642149
:1019400001FB1089A88900F4004040B1322000EB6F
:10195000C900B0FBF1F000F00700044308E03220BA
:1019600000EB09106421B0FBF1F000F00F0004431C
:101970002C8106B0BDE8F0874FF4165101600021BC
:101980008180C18001810C214181002181817047CA
:1019900010B502460020108A4FF2FF0318400B8852
:1019A0004C8823438C882343CC88234318431082DC
:1019B00010BD0021018041808180C180704721B12C
:1019C000828942F40052828104E082894DF6FF73DD
:1019D0001A4082817047F0B5034600240026002596
:1019E000002040F66A17B94200D100BF1846C1F383
:1019F000421401F01F06012707FA06F5012C01D158
:101A00000C3004E0022C01D1103000E014301AB187
:101A100007682F43076002E00768AF430760F0BD27
:101A20001AB1838A0B43838202E0838A8B438382C9
:101A30007047028A4FF6F0731A400282028A0A4304
:101A40000282704782894FF2FF731A408281828935
:101A50000A438281704721B1828942F00202828169
:101A600004E082894FF6FD731A4082817047028A32
:101A70004FF6DF731A400282028A0A4302827047DD
:101A800021B1028A42F48042028204E0028A4BF6CB
:101A9000FF731A4002827047C1F3080282807047C8
:101AA00001468888C0F308007047818941F0010130
:101AB00081817047028BD2B20283028B42EA0122FB
:101AC00002837047028B02F47F420283028B0A4337
:101AD0000283704721B1828A42F02002828204E0B0
:101AE000828A4FF6DF731A408282704721B1828A60
:101AF00042F01002828204E0828A4FF6EF731A40AD
:101B00008282704721B1828A42F00802828204E018
:101B1000828A4FF6F7731A408282704721B1828918
:101B200042F40042828103E08289C2F30E02828184
:101B3000704721B1828A42F40062828204E0828A84
:101B40004FF2FF731A4082827047828A4FF6FB730E
:101B50001A408282828A0A438282704721B1828A35
:101B600042F00202828204E0828A4FF6FD731A403C
:101B70008282704702460020B1F5007F00D100BF8D
:101B800013880B400BB1012000E00020704701F4E6
:101B90000072B2F5007F00D100BFCA4302807047D7
:101BA00070B50246002400230025002040F66A1686
:101BB000B14200D100BFC1F3421501F01F0301265D
:101BC00006FA03F3012D02D19689334006E0022D77
:101BD00002D1168A334001E0968A33400C12012666
:101BE00006FA04F41688344013B10CB1012000E069
:101BF000002070BD10B50022002340F66A14A142F7
:101C000000D100BF0A1201249440A3B2DC43048037
:101C100010BD000000380140004400400048004072
:101C2000004C004000500040002400BF0027A046A8
:101C300000BF01250026FEF7E4FA01F009F901F0E2
:101C4000B5FA01F0E3F801F061F800F07FFE00F072
:101C5000B3FF00F0F0FF00F08BFA0A2000F06FF9FC
:101C600000F058FB4FF4FA7000F069F900F01EF92B
:101C70004FF0E020006940F001004FF0E0210861E2
:101C800090E000F0B5FB761CC82EF9D1002601F0DB
:101C9000AEF90446112C50D2DFE804F04F090D14C0
:101CA0001B1F262D343B3C3D3E3F43474B003EA08F
:101CB00000F070FF45E000203F4908603FA000F0C1
:101CC00069FF3EE000203C4908603FA000F062FF51
:101CD00037E040A000F05EFF33E0012036490860A5
:101CE0003FA000F057FF2CE004203349086040A0DB
:101CF00000F050FF25E002202F49086040A000F0CE
:101D000049FF1EE003202C49086041A000F042FF7B
:101D100017E016E015E014E013E000202649086003
:101D20000FE03FA000F036FF0BE041A000F032FFD3
:101D300007E042A000F02EFF03E000201E490860EB
:101D400000BF00BF01F040FA054629463FA004F05D
:101D500089FF072001F051FA082001F04EFA0746EA
:101D6000052001F04AFA8046062001F046FA012DCE
:101D700007D10020394908603949086001F0B1FBFA
:101D800010E0A7F17F016FF0160201FB02F004F0F2
:101D9000F4FC32490860A8F18001480004F0EDFC31
:101DA0002F4908606DE700005053425F53454C4592
:101DB0004354200A00000000980000205053425F66
:101DC0004C33200A000000005053425F5233200A77
:101DD000000000005053425F5354415254200A0007
:101DE0005053425F5041445F5550200A00000000AC
:101DF0005053425F5041445F5249474854200A00C3
:101E00005053425F5041445F444F574E200A0000F8
:101E10005053425F5041445F4C454654200A0000F5
:101E20005053425F434952434C45200A0000000092
:101E30005053425F43524F5353200A005053425F66
:101E4000535155415245200A000000007265646CF0
:101E5000696768743A25640A00000000DC0000200D
:101E6000E0000020704700BFFEE700BFFEE700BFB4
:101E7000FEE700BFFEE770477047704710B50A489D
:101E80000068401C0849086001F085FA01F0C4F9B7
:101E900001F029FA04480068082804DB01F0A3FADD
:101EA00000200149086010BDD000002030B51A485C
:101EB0000068C822B0FBF2F1B1F1807F01D30120AC
:101EC0001DE021F07F40401E4FF0E022506150178E
:101ED0000F22002807DA13071D0E104B00F00F0425
:101EE000241F1D5503E013071C0E0D4B1C5400BF8F
:101EF00000204FF0E022906107201061002008B11F
:101F000000BFFEE74FF0E020006920F001004FF035
:101F1000E021086130BD00000000002018ED00E065
:101F200000E400E0014605E0002001E0421CD0B2E0
:101F30000A28FBDB0A1EA1F10101F5D1704710B59B
:101F4000044603E04FF47A70FFF7ECFF201EA4F183
:101F50000104F7D110BD704708B50720009002E0DA
:101F60000098401E009000980028F9D108BD10B5D7
:101F70004FF40070E649086040100860FFF7ECFF7E
:101F8000E3480838006808B9012000E0002000F4A8
:101F9000007008B1002010BD4FF40070DC49091D2D
:101FA0000860FFF7D9FFDA480838006800F40070CD
:101FB00008B10020EFE74FF40070D549091D086013
:101FC000FFF7CAFF0120E6E710B54FF48070D04953
:101FD000091D0860FFF7C0FF4FF40070CC49091DD0
:101FE0000860FFF7B9FF4FF48070C9490860FFF738
:101FF000B3FF4FF40070C6490860FFF7ADFF10BD96
:1020000010B54FF48070C249091D0860FFF7A4FFA6
:102010004FF40070BE49091D0860FFF79DFF4FF4A3
:102020008070BB490860FFF797FF4FF48070B84994
:10203000091D0860FFF790FF10BD10B54FF48070C8
:10204000B349091D0860FFF787FF4FF40070B049DE
:102050000860FFF781FF4FF48070AD490860FFF71B
:102060007BFF4FF48070AA49091D0860FFF774FFD9
:1020700010BD10B54FF48070A549091D0860FFF729
:102080006BFF4FF40070A2490860FFF765FF4FF443
:1020900080709F490860FFF75FFF9D48083800681F
:1020A00000F4007030B14FF480709949091D086048
:1020B000002010BD4FF480709549091D0860012073
:1020C000F7E770B5044608251DE04FF4807090498D
:1020D000091D0860FFF740FF04F0800020B14FF4B5
:1020E00000708B49086004E04FF400708849091DB6
:1020F00008606006040EFFF72FFF4FF480708449DC
:102100000860FFF729FF281EA5F10101CDB2DCD13F
:102110004FF480707E49091D086070BD70B50825B8
:102120000024A8017A49086016E06006040E4FF406
:1021300080707749091D0860FFF70EFF4FF480702B
:1021400073490860FFF708FF71480838006800F419
:10215000007008B144F00104281EA5F10101CDB2C0
:10216000E3D14FF480706A49091D0860204670BDB4
:1021700008B501210820FEF7E1FB4FF44070ADF8EF
:10218000000002208DF8020014208DF8030069463B
:102190005F481038FEF716F908BD2DE9F0410546F5
:1021A0000E4617469846FFF7E2FE10B90020BDE83C
:1021B000F081002141EA4501C8B2FFF782FFFFF735
:1021C00058FF18B9FFF700FF0020F0E73046FFF78F
:1021D00078FFFFF74EFF00240BE018F80400FFF72C
:1021E00070FFFFF746FF18B9FFF7EEFE0020DEE7AD
:1021F000641CBC42F1DBFFF7E7FE0120D7E72DE9C5
:10220000F04104460D4616461F463B4632462946D7
:102210002046FFF7C2FF10B10020BDE8F0814FF06B
:10222000FF30FAE72DE9F04105460F4614461E46F9
:10223000FFF79DFE10B90020BDE8F081002141EAC2
:102240004501C8B2FFF73DFFFFF713FF18B9FFF7CD
:10225000BBFE0020F0E73846FFF733FFFFF709FF2A
:10226000FFF785FE012101EB4501C8B2FFF729FF09
:10227000FFF7FFFE0CE0FFF751FF3070012C02D199
:10228000FFF7DBFE01E0FFF7BBFE761C601EC4B269
:10229000002CF0D1FFF798FE0120CDE72DE9F041A9
:1022A00004460D4616461F463B4632462946204602
:1022B000FFF7B8FF10B10020BDE8F0814FF0FF300C
:1022C000FAE770B504460D461646FFF750FE08B90A
:1022D000002070BD002141EA4401C8B2FFF7F1FEC1
:1022E000FFF7C7FE18B9FFF76FFE0020F1E7284699
:1022F000FFF7E7FEFFF7BDFE3046FFF7E2FEFFF710
:10230000B8FEFFF761FE0120E3E700207047000000
:10231000100C014070B5002401F0A9FD0446002C0A
:1023200060D17CA000F036FC782001F002FA18B9E8
:1023300081A000F02FFC02E087A000F02BFC7820A9
:1023400001F0E4FB18B98FA000F024FC02E096A095
:1023500000F020FC642001F0BAFC18B99EA000F047
:1023600019FC02E0A6A000F015FC03F071F818B902
:10237000ACA000F00FFC02E0B7A000F00BFCC548D9
:1023800003F042FF054603F06DF818B9C2A000F053
:1023900001FC02E0CAA000F0FDFB40F2731003F064
:1023A000A2FC18B9D2A000F0F5FB02E0D9A000F021
:1023B000F1FB642003F010FA18B9E2A000F0EAFB88
:1023C00002E0E9A000F0E6FB03F032FF012002F09A
:1023D00085FD18B9EFA000F0DDFB08E0F6A000F0E5
:1023E000D9FB04E04FF40051FE48FEF79AF870BDA7
:1023F0002DE9F04F89B0FC48FC49FD4BFD4ACDE981
:102400000010FD49FD4803F0CDFDF848008800F4B8
:10241000807000287CD0F749086804F0AEF90446C3
:102420004FF09D4104F052F8F5490860F1494868C1
:1024300004F0A3F904464FF09D4104F047F8F14938
:102440000860EC49886804F098F904464FF09D4113
:1024500004F03CF8EC490860E649C86804F08DF9DE
:1024600004464FF09D4104F031F8E8490860E44823
:1024700001684FF0804003F0F7FF0690E2480168E2
:10248000069803F0F1FF8246DE4801684FF04040B5
:1024900003F0EAFF0690DD480168069803F0E4FFC8
:1024A0008346514603F088FF079004F0A1F90646E1
:1024B00004F024FD80464FF06632D54B04F0EBF873
:1024C000044604F0A8F9D3490860CF4801684FF0EA
:1024D000804003F0C9FF0390CB480168039803F0E4
:1024E000C3FF8246C74801684FF0404003F0BCFF7D
:1024F0000390C4480168039803F0B6FF8346514631
:1025000003F0ACFF81464FF07E5103F055FF83E1AD
:102510000AE200006D707520696E697469616C690A
:102520007A6174696F6E20636F6D706C6574652E6F
:102530002E2E2E2E2E0A20006D70755F7365745F2F
:1025400073656E736F7220636F6D706C6574652058
:102550002E2E2E2E2E2E0A006D70755F7365745F01
:1025600073656E736F7220636F6D65206163726F48
:102570007373206572726F72202E2E2E2E2E2E0AED
:10258000000000006D70755F636F6E66696775723D
:10259000655F6669666F20636F6D706C657465203A
:1025A0002E2E2E2E2E2E0A006D70755F636F6E66B6
:1025B00069677572655F6669666F20636F6D652018
:1025C0006163726F7373206572726F72202E2E2E8C
:1025D0002E2E2E0A000000006D70755F7365745F0B
:1025E00073616D706C655F7261746520636F6D708F
:1025F0006C657465202E2E2E2E2E2E0A00000000F3
:102600006D70755F7365745F73616D706C655F721B
:10261000617465206572726F72202E2E2E2E2E2E02
:102620000A000000646D705F6C6F61645F6D6F74B1
:10263000696F6E5F6472697665725F6669726D77E5
:1026400061726520636F6D706C657465202E2E2E2F
:102650002E2E2E0A00000000646D705F6C6F6164A6
:102660005F6D6F74696F6E5F6472697665725F66C5
:1026700069726D7761726520636F6D652061637249
:102680006F7373206572726F72202E2E2E2E2E2E77
:102690000A00000028000020646D705F7365745F9D
:1026A0006F7269656E746174696F6E20636F6D70AF
:1026B0006C657465202E2E2E2E2E2E0A0000000032
:1026C000646D705F7365745F6F7269656E74617459
:1026D000696F6E20636F6D65206163726F73732025
:1026E0006572726F72202E2E2E2E2E2E0A00000082
:1026F000646D705F656E61626C655F66656174755F
:10270000726520636F6D706C657465202E2E2E2EA1
:102710002E2E0A00646D705F656E61626C655F6687
:1027200065617475726520636F6D65206163726F9A
:102730007373206572726F72202E2E2E2E2E2E0A2B
:1027400000000000646D705F7365745F6669666F9A
:102750005F7261746520636F6D706C657465202EA7
:102760002E2E2E2E2E0A0000646D705F7365745F2E
:102770006669666F5F7261746520636F6D65206165
:1027800063726F7373206572726F72202E2E2E2EFD
:102790002E2E0A006D70755F7365745F646D705FD7
:1027A000737461746520636F6D706C657465202E41
:1027B0002E2E2E2E2E0A00006D70755F7365745FCD
:1027C000646D705F737461746520636F6D65206103
:1027D00063726F7373206572726F72202E2E2E2EAD
:1027E0002E2E0A0000100140620000206000002030
:1027F00050000020140100205A0000205400002046
:1028000034000020380000203C0000204000002060
:1028100066A64C4044000020044603F0E9FFCDE9E1
:102820000401434801684FF0804003F01DFE8346D9
:1028300040480168584603F017FE81463E4801684B
:102840004FF0804003F010FE83463C480168584634
:1028500003F00AFE8246494603F0AEFD044603F04B
:10286000C7FF0746DDE9042304F090FD4FF0663210
:10287000334BCDE9060103F00EFF054603F0CBFF15
:10288000304908602D480168006803F0EDFD0390B1
:1028900029480168006803F0E7FD029025480168B7
:1028A000006803F0E1FD834621480168006803F0F9
:1028B000DBFD5946019003F07FFD8246029903F04B
:1028C000CDFD8146039903F0C9FD044603F090FF56
:1028D000CDE90401194801681548006803F0C4FDFA
:1028E0008246154801681348006803F0BDFD834621
:1028F000514603F061FD81464FF0804103F0B4FD85
:10290000044603F075FF0746DDE9042304F03EFDAD
:102910004FF066320A4BCDE9060103F0BCFE0546D6
:1029200003F079FF0849086009B0BDE8F08F0000A6
:1029300034000020380000203C000020400000202F
:1029400066A64C40480000204C00002000B585B031
:1029500001210420FDF7F2FF01218803FDF7EEFFBE
:102960004FF40070ADF8100018208DF8130003200C
:102970008DF8120004A98D48FDF724FD4FF4806006
:10298000ADF8100004208DF8130004A98748FDF766
:1029900019FD4FF4E13000900020ADF80400ADF8CF
:1029A0000600ADF80800ADF80C000C20ADF80A00E8
:1029B00069467F48FEF777FF01217D48FEF7FFFF5C
:1029C00005B000BD00BF7A4A128802F04002002A1A
:1029D000F9D0C2B2764B1B1D1A807047F0B5034682
:1029E0000D461646002729460A2E03D000200870FF
:1029F0002846F0BD33B9302001F8010B00200870E3
:102A00002846F6E7002B03DA2D2001F8010B5B4284
:102A100042F210720DE093FBF2F404B937B104F105
:102A2000300001F8010B04FB123301270A2092FB4E
:102A3000F0F2002AEFDC002008702846D9E70FB436
:102A400070B586B006460CA8019073E00B9800782C
:102A50005C281CD10B98401C0B9000786E2809D084
:102A600072280FD10D213046FFF716F80B98401C45
:102A70000B900BE00A213046FFF70EF80B98401C34
:102A80000B9003E00B98401C0B9000BF4BE00B98A1
:102A90000078252840D10B98401C0B9000786428C2
:102AA00018D0732833D1019810C801900BE0217819
:102AB0003046FEF7F1FF00BF40213046FFF75AF8DD
:102AC0000028F9D0641C20780028F0D10B98401C15
:102AD0000B9020E0019820C801900A2202A9284604
:102AE000FFF77CFF02AC0BE021783046FEF7D4FF05
:102AF00000BF40213046FFF73DF80028F9D0641CA4
:102B000020780028F0D10B98401C0B9003E00B9824
:102B1000401C0B9000BF06E00B9810F8011B0B90B7
:102B20003046FEF7B9FF00BF40213046FFF722F8DC
:102B30000028F9D00B980078002887D106B070BC27
:102B40005DF814FB10B5044621461948FEF7A4FFB2
:102B500000BF40211648FFF70DF80128F9D110BD3C
:102B600010B5044621461348FEF796FF00BF4021EA
:102B70001048FEF7FFFF0128F9D110BD70B50546DA
:102B80002C4603E02078FFF7EBFF641C2078002838
:102B9000F8D170BD70B505462C4603E02078FFF7EC
:102BA000D1FF641C20780028F8D170BD00080140D6
:102BB000003801400048004000B587B001210220E4
:102BC000FDF7C9FE01210420FDF7B8FE04208DF8B1
:102BD0001B00C020ADF8180006A94848FDF7F2FB1D
:102BE0000020ADF80C004FF6FF70ADF8100000208B
:102BF000ADF81200ADF80E0003A94148FDF7D6FF6D
:102C000000231A4603213E48FEF7DFFB6846FEF725
:102C10000CFB69463A48FEF75CFA01213848FEF79A
:102C2000E7FD00213648FEF7B1FD01213448FEF7EB
:102C300019FB07B000BD00B587B001210420FDF7E6
:102C40008AFE01210820FDF779FE6846FDF745FC64
:102C5000C020ADF8000004208DF8030003208DF89B
:102C6000020069462748FDF7ADFB2748FDF7CAFE7D
:102C700004A8FEF7C7FA0020ADF810004FF6FF7069
:102C8000ADF814000020ADF81600ADF8120004A94C
:102C90001D48FDF78BFF0A231A4603211A48FEF749
:102CA00094FB01A8FEF7C1FA0620ADF80C0001A9BB
:102CB0001548FEF70EFA01211348FEF799FD01228F
:102CC00011461148FEF7E9FA01210F48FEF7CAFA4A
:102CD00007B000BD10B50A48243004880021084818
:102CE000FEF754FD204610BD10B507482430048877
:102CF00000210548FEF74AFD204610BD00080140AE
:102D000000040040000C01400008004008B501210B
:102D10000820FDF713FE4FF47040ADF800001020BE
:102D20008DF8030003208DF8020069464448FDF742
:102D300049FB4FF470414248FDF7F1FB08BD08B56F
:102D400001210420FDF7FAFD0420ADF80000182051
:102D50008DF8030003208DF8020069463948FDF71D
:102D600031FB01210420FDF7E9FD0820ADF800004A
:102D700018208DF8030003208DF8020069463148C1
:102D8000FDF720FB08BD30B587B001210846FDF7EF
:102D9000E2FD0025002440F2E730ADF814000020E9
:102DA000ADF81000ADF81600ADF8120004A94FF010
:102DB0008040FDF7FBFE6020ADF800000120ADF87B
:102DC0000200ADF806500020ADF8080069464FF04B
:102DD0008040FDF7B7FF0821C806FEF789FB0120F8
:102DE000ADF80200ADF806400020ADF808006946D5
:102DF0004FF08040FDF7F1FF0821C806FEF781FB88
:102E000001218807FEF72EFA07B030BD10B5FFF795
:102E100096FFFFF7B8FF10BD10B50B4804880021DE
:102E200009482438FEF7B2FC204610BD10B507480B
:102E30000488002105482438FEF7A8FC204610BD70
:102E4000000C014000080140240400402408004018
:102E500008B501210420FDF771FD41F60200ADF82F
:102E6000000010208DF8030003208DF80200694651
:102E7000E448FDF7A7FA4FF48070ADF80000282071
:102E80008DF8030003208DF802006946DD48FDF748
:102E900099FA08BD38B50446012000900020DA49AF
:102EA00048700120009037E0BDF80000204028B1B4
:102EB0004FF48050D3491031086004E04FF4805043
:102EC000D049143108604FF40060CE4910310860D9
:102ED0000A20FFF727F84FF40060CA491431086050
:102EE0000A20FFF71FF84FF40060C6491031086050
:102EF000C4480830006800F4807030B1C24840789F
:102F0000BDF800100843C0494870BDF800004FF6F6
:102F1000FF7101EA40000090BDF80000FF28C3DD0A
:102F20001020FEF7FFFF38BD1CB5002001900120E6
:102F300000900220B34914310860B4490878FFF7C3
:102F4000A9FFB2494878FFF7A5FF022001903BE0B6
:102F5000012000902CE04FF40060AA491031086075
:102F60000A20FEF7DFFF4FF40060A6491431086025
:102F70000A20FEF7D7FF4FF40060A2491031086025
:102F8000A0480830006800F4807050B19E489DF859
:102F90000410405CBDF8001008439B499DF80420D4
:102FA0008854BDF800004FF6FF7101EA4000009020
:102FB000BDF80000FF28CEDD1020FEF7B3FF9DF81E
:102FC0000400401CC0B201909DF804000928BFDB3A
:102FD00002208C49103108601CBD002004E0002153
:102FE000894A1154411CC8B20928F8DB704710B552
:102FF000FFF7F3FFFFF798FF8348C078824909790C
:1030000040EA01208249088000240FE0814810F83E
:103010001400401E012101FA00F07D490988084092
:1030200010B9601CC0B210BD601CC4B2102CEDDB26
:103030000020F8E710B50220724914310860102012
:10304000FEF770FF0120FFF725FF4220FFF722FF68
:103050000020FFF71FFF0020FFF71CFF0020FFF7F5
:1030600019FF02206749103108601020FEF75AFF4F
:1030700010BD10B502206349143108601020FEF71E
:1030800051FF0120FFF706FF4320FFF703FF002059
:10309000FFF700FF0120FFF7FDFE0020FFF7FAFE1B
:1030A0000020FFF7F7FE0020FFF7F4FE0020FFF7F7
:1030B000F1FE0020FFF7EEFE0220524910310860B9
:1030C0001020FEF72FFF10BD10B502204D4914311E
:1030D00008600120FFF7DEFE4420FFF7DBFE002042
:1030E000FFF7D8FE0120FFF7D5FEEE20FFF7D2FE56
:1030F0000020FFF7CFFE0020FFF7CCFE0020FFF7F7
:10310000C9FE0020FFF7C6FE02203E4910310860CC
:103110001020FEF707FF10BD10B502203949143109
:1031200008601020FEF7FEFE0120FFF7B3FE4D20E1
:10313000FFF7B0FE0020FFF7ADFE0020FFF7AAFE6C
:103140000120FFF7A7FE02202E4910310860102051
:10315000FEF7E8FE10BD10B502202A4914310860C0
:103160001020FEF7DFFE0120FFF794FE4320FFF75B
:1031700091FE0020FFF78EFE0020FFF78BFE5A2005
:10318000FFF788FE5A20FFF785FE5A20FFF782FEE0
:103190005A20FFF77FFE5A20FFF77CFE02201949D4
:1031A000103108601020FEF7BDFE10BD10B5FFF70E
:1031B00041FFFFF73FFFFFF73DFFFFF75AFFFFF724
:1031C00083FFFFF7C8FF10BD10B502200D49143171
:1031D00008600E490878FFF75DFE0C494878FFF754
:1031E00059FE0220074910310860074840787328CB
:1031F00001D1002010BD0120FCE701460248405CDF
:103200007047000000080140240100206A000020EF
:10321000680000207600002070B50021C3480068D7
:1032200003F01CF9C2490860C249B1F9000003F07B
:10323000A4FA0646C0480168304603F015F9044672
:10324000BE480168BA48006803F00EF905462146F9
:1032500003F0B2F8BA49086070BD2DE9F0410446A8
:103260000D46002C0CDA4FF48041B648FDF757F9B3
:103270004FF40041B348FDF754F9604204B20AE04C
:103280004FF40041AF48FDF74AF94FF48041AD4893
:10329000FDF747F900BF002D0CDA4FF40051A948A3
:1032A000FDF73DF94FF48051A648FDF73AF9684221
:1032B00005B20AE04FF48051A248FDF730F94FF40F
:1032C0000051A048FDF72DF900BFAFB2A6B23146BC
:1032D0004FF08040FEF762FA39464FF08040FEF72B
:1032E0005FFABDE8F08170B59748016894480068BE
:1032F00003F062F8044695480168204603F05CF844
:1033000093490860904801688D48006803F054F8BC
:1033100004468E480168204603F0A0F88D490860F5
:103320008B48006803F037FA00B2B0F57A7F02DD0F
:103330008948874908608648006803F02CFA00B283
:1033400010F57A7F02DA8548814908608148006873
:1033500003F021FA00B2B0F57A7F02DD7E487D49A4
:1033600008607C48006803F016FA00B210F57A7F16
:1033700002DA7A48774908607648006803F00BFA69
:1033800004B27348006803F006FA05B221462846E5
:10339000FFF763FF70BD70B57148FEF71AFA044677
:1033A0007048FEF716FA054600216D48FEF7EEF963
:1033B00000216C48FEF7EAF920B26B49088028B278
:1033C0006A4908806A4800686749B1F900100844F2
:1033D00067490860674800686449B1F9001008440B
:1033E0006449086070BD2DE9F05F61490968494290
:1033F000604A1268881A03F0C0F95F49086000202B
:103400005C4908605A4908605C48006803F0F0F9BC
:1034100006464FF066325A4B03F03DF9044603F07E
:10342000FAF9564908605448006803F0E1F980460B
:103430004FF03332534B03F02EF982468B464F4800
:10344000006803F0D5F9064652465B4603F07CF867
:10345000044603F0E0F949490860084601684A4813
:10346000006802F0A9FF48490860484801684648DA
:10347000006802F0A1FF444908600846006803F0B4
:103480008AF941F27071884202DD41483E49086084
:103490003D48006803F07FF93E49884202DA3E4821
:1034A0003949086000213848006802F0D7FF064615
:1034B0003A480168304602F0D7FF044600212F4801
:1034C000006802F0CBFF064635480168304602F03E
:1034D000CBFF0546214602F06FFF1B490860BDE89F
:1034E000F09F3048006805281AD2DFE800F0030991
:1034F000150D11000020254908601449086013E0EB
:103500002948224908600FE02848104908600BE06C
:1035100027480E49086007E026481C49086003E078
:1035200000201A49086000BF00BF70474800002013
:10353000AC00002054000020A00000209C000020CF
:10354000B0000020000C0140CC000020E000002072
:10355000D4000020D800002000007A4400007AC483
:103560000004004000080040BC000020BE00002015
:10357000C0000020C4000020B4000020B8000020DB
:103580006666E63F3333D33FC8000020DC000020EE
:103590000080BB4590E8FFFF0080BBC5A80000206D
:1035A000A40000209800002000803B450000C8C314
:1035B0000000C84300803BC538B50446FB4890F87E
:1035C0002400C0B114B10220009001E0002000905E
:1035D000F64A1268D17BF54A526810786B46012290
:1035E000FEF70DFE10B14FF0FF3038BD9DF8001012
:1035F000EE48417423E0ED48807A10B94FF0FF3077
:10360000F3E724B1E948407C08B10020EDE714B1AC
:103610000120009001E000200090E44A1268D17B74
:10362000E24A526810786B460122FEF7E8FD10B1BD
:103630004FF0FF30D9E79DF80010DC4841740020BE
:10364000D3E738B5002419E0D8480068C07AA04212
:1036500004D0D6480068407DA04200D10CE0D34998
:10366000496808786B4601222146FEF717FE10B123
:103670004FF0FF3038BD00BF601CC4B2CB4840687B
:103680000079A042E0DC0020F4E770B504460D4666
:10369000C6480068C07AA04204D0C4480068407D93
:1036A000A04202D14FF0FF3070BDC04840680079A1
:1036B000A04202DC4FF0FF30F6E7BC4949680878C9
:1036C0002B4601222146FEF7E9FDEDE738B5044619
:1036D000B64890F82300A04201D1002038BD14B1B3
:1036E0003020009001E000200090B048807C20B1A4
:1036F0009DF8000040F002000090AC4890F82200D5
:1037000020B19DF8000040F080000090A74A1268A8
:10371000117DA64A526810786B460122FEF76FFDB4
:1037200010B14FF0FF30D9E7A04880F823400020C7
:10373000D4E738B5044604F0700010B101200090C1
:1037400005E014B10020009001E040200090974A6D
:103750001268917C954A526810786B460122FEF7F8
:103760004EFD20B1002191488172481E38BD9DF860
:10377000000020F040018D4801730020009004F00B
:10378000400020B99DF8000040F00400009004F0D3
:10379000200020B99DF8000040F00200009004F0E5
:1037A000100020B99DF8000040F00100009004F0E6
:1037B000080020B99DF8000040F0380000907B4AD6
:1037C0001268D17C794A526810786B460122FEF764
:1037D00016FD20B1002175488172481EC6E724B14C
:1037E000082C02D00020FFF771FF7048847200217E
:1037F00001753220FEF7A3FB0020B7E738B5044679
:103800006A48807CA04201D1002038BD002C46D0FF
:10381000664A12681179654A526810786B4601222F
:10382000FEF73CFD10B14FF0FF30EEE79DF80000D1
:1038300020F0200000905D4A126811795B4A5268BE
:1038400010786B460122FEF7DAFC10B14FF0FF3022
:10385000DBE70320FEF773FB02200090534890F84B
:10386000220020B19DF8000040F0800000904F48F9
:1038700090F8230020B19DF8000040F03000009047
:103880004A4A1268117D494A526810786B460122F3
:10389000FEF7B5FC002851D04FF0FF30B5E7434AA2
:1038A00012681179414A526810786B460122FEF77E
:1038B000F5FC10B14FF0FF30A7E73C48807A00F0EC
:1038C000010028B19DF8000040F02000009004E0C5
:1038D0009DF8000020F020000090344A1268117911
:1038E000324A526810786B460122FEF788FC10B10C
:1038F0004FF0FF3089E70320FEF721FB2B4890F8BB
:10390000220010B18020009001E0002000902748A4
:1039100090F8230020B19DF8000040F030000090A6
:10392000224A1268117D214A526810786B460122A2
:10393000FEF765FC10B14FF0FF3066E71B4884745A
:10394000002062E708B51948807A10B94FF0FF30BF
:1039500008BD00200090154A1268D17B134A5268B6
:1039600010786B460122FEF74AFC10B14FF0FF3091
:10397000EEE70E4A126851790C4A526810786B468D
:103980000122FEF73CFC10B14FF0FF30E0E7074AA0
:1039900012681179054A526810786B460122FEF7C9
:1039A0002EFC28B14FF0FF30D2E70000E4000020E9
:1039B000F74890F82400002853D00C200090F44AD7
:1039C00012681179F24A526810786B460122FEF7AC
:1039D00016FC10B14FF0FF30BAE73220FEF7AFFA15
:1039E000C0200090EA48807A00F0010020B19DF8E4
:1039F000000040F020000090E54A12681179E44A86
:103A0000526810786B460122FEF7F9FB10B14FF0B7
:103A1000FF309DE7DE48407C10B10220009001E0BD
:103A200000200090DA4A1268D17BD94A5268107897
:103A30006B460122FEF7E3FB10B14FF0FF3087E742
:103A400000200090D24A12685179D14A5268107809
:103A50006B460122FEF7D3FB002855D04FF0FF3014
:103A600076E704200090CA4A12681179C84A526861
:103A700010786B460122FEF7C2FB10B14FF0FF3009
:103A800066E7C348807C20B9C148807A00F0010015
:103A900010B94020009001E060200090BC4A1268FC
:103AA0001179BB4A526810786B460122FEF7A7FBDA
:103AB00010B14FF0FF304BE73220FEF740FAB44828
:103AC000407C10B10120009001E000200090B04A3D
:103AD0001268D17BAE4A526810786B460122FEF71D
:103AE0008EFB10B14FF0FF3032E7A94A12685179CE
:103AF000A74A52681078A64B10330122FEF77FFBCD
:103B000010B14FF0FF3023E7002021E770B50446E5
:103B1000002624F001049E4890F8240008B10020FB
:103B200070BD9B48807A10B94FF0FF30F8E7984895
:103B3000057C807A2040964908740846007CA042A3
:103B400002D04FF0FF3600E0002614B99048007D07
:103B500018B10120FFF730FD02E00020FFF72CFD37
:103B60003CB1FFF7EFFE20B1894805744FF0FF30FC
:103B7000D6E73046D4E738B504468548807A10B990
:103B80004FF0FF3038BDBC2C02DB0120009015E067
:103B9000622C02DB0220009010E02A2C02DB0320C2
:103BA00000900BE0142C02DB0420009006E00A2CAD
:103BB00002DB0520009001E0062000907448C07AE6
:103BC0009DF80010884201D10020DBE7704A12689E
:103BD00091786F4A526810786B460122FEF70FFB0E
:103BE00010B14FF0FF30CDE79DF800106848C1726A
:103BF0000020C7E738B50446282C02DD4FF0FF301F
:103C000038BDDCB90020FFF761FD00208DF8000011
:103C100007208DF801005E4A1268917C5C4A526868
:103C200010786B460222FEF7EAFA10B14FF0FF302F
:103C3000E6E70021564801750020E1E70120FFF783
:103C400045FD20208DF80000012C06D100208DF8C4
:103C500001000520FFF78FFF17E0052C06DC01208F
:103C60008DF801000520FFF786FF0EE0142C06DC1E
:103C700002208DF801000A20FFF77DFF05E00320F8
:103C80008DF801001420FFF776FF9DF80100072151
:103C900001EB8010C0B28DF801003D4A1268917CA2
:103CA0003B4A526810786B460222FEF7A8FA10B120
:103CB0004FF0FF30A4E708213548817200210173DD
:103CC000012101750020FFF721FF002098E738B59A
:103CD00004462F48807A10B94FF0FF3038BD2C4889
:103CE00090F8240010B14FF0FF30F7E72848007D2E
:103CF00050B134B1282C04DCE0B2FFF77BFF002088
:103D0000ECE70020FFF776FF042C01DA042404E03E
:103D1000B4F57A7F01DD4FF47A744FF47A7090FB3A
:103D2000F4F0401EC0B20090194A12685178184A47
:103D3000526810786B460122FEF761FA10B14FF01D
:103D4000FF30CBE79DF80000401C4FF47A7191FBE7
:103D5000F0F081B20E48C1810146C9894810FFF7D1
:103D60000AFF0020BAE738B504460948807A10B93E
:103D70004FF0FF3038BD022C06D0042C0AD0082C9E
:103D80000BD0102C0FD10BE0002000900EE00000B3
:103D9000E40000200820009008E01020009005E0DA
:103DA0001820009002E04FF0FF30E3E700BFF84832
:103DB000407A9DF80010B0EBE10F01D10020D9E767
:103DC000F34A1268D179F24A526810786B460122A0
:103DD000FEF715FA10B14FF0FF30CBE79DF8000069
:103DE000C110EB4841720020C4E738B50446E848EA
:103DF000807A10B94FF0FF3038BDFA2C09D0B4F5F5
:103E0000FA7F09D0B4F57A7F09D0B4F5FA6F0CD1F6
:103E100008E0002000900BE00820009008E010204F
:103E2000009005E01820009002E04FF0FF30E3E73B
:103E300000BFD748007A9DF80010B0EBE10F01D128
:103E40000020D9E7D24A12689179D14A5268107895
:103E50006B460122FEF7D3F910B14FF0FF30CBE7EC
:103E60009DF80000C010CA4908720020C4E71CB5C4
:103E700080208DF80000C64A1268917CC44A5268BE
:103E800010786B460122FEF7BAF910B14FF0FF30FF
:103E90001CBD6420FEF753F800208DF80000BC4ADA
:103EA0001268917CBA4A526810786B460122FEF77C
:103EB000A6F910B14FF0FF30EAE7B54A1268917DDC
:103EC000B34A526810786B460622FEF7E7F910B144
:103ED0004FF0FF30DCE79DF80500C007400F9DF86C
:103EE000031001F0010140EA41009DF8011001F0CA
:103EF000010140EA01048CB1012C03D10121A44845
:103F0000C17430E0022C03D10021A148C1742AE021
:103F1000A0A0FEF73FFE4FF0FF30B9E79C4A1268C1
:103F2000D1789B4A526810786B460122FEF7B6F9A9
:103F300010B14FF0FF30ABE79DF8000000F00F0428
:103F40002CB99E48FEF726FE4FF0FF30A0E7042C68
:103F500006D19BA0FEF71EFE01218D48C17402E030
:103F600000218B48C174FF2189488172FF20884954
:103F70000872FF2186484172C1724FF6FF71C181FC
:103F8000FF21017481740121017380F82210002146
:103F900080F8231041750175163001604160816021
:103FA000163880F8241080F82510C1844FF4FA6088
:103FB000FFF71BFF10B14FF0FF3069E70220FFF75A
:103FC000D2FE10B14FF0FF3062E72A20FFF7D3FD99
:103FD00010B14FF0FF305BE73220FFF778FE10B1F1
:103FE0004FF0FF3054E70020FFF790FD10B14FF085
:103FF000FF304DE70020FFF701FC10B14FF0FF301C
:1040000046E70020FFF795FB002041E77CB504461A
:104010000D465F48807A00F0700010B94FF0FF3015
:104020007CBD5B4A1268117B594A526810786B4616
:104030000622FEF733F910B14FF0FF30F0E79DF89C
:1040400001009DF8001040EA012000B220809DF898
:1040500003009DF8021040EA012000B260809DF844
:1040600005009DF8041040EA012000B2A08015B1BF
:104070002846FDF770FF0020D2E77CB504460D46C8
:104080004348807A00F0080010B94FF0FF307CBD43
:104090003F4A1268517B3E4A526810786B460622AE
:1040A000FEF7FCF810B14FF0FF30F0E79DF801008B
:1040B0009DF8001040EA012000B220809DF8030026
:1040C0009DF8021040EA012000B260809DF80500D2
:1040D0009DF8041040EA012000B2A08015B12846E6
:1040E000FDF739FF0020D2E72DE9FE4F05460C46CB
:1040F0002748807A18B94FF0FF30BDE8FE8F244A78
:104100001268917B224A5268107802AB0222FEF7B5
:10411000C5F810B14FF0FF30EFE79DF809009DF8AA
:10412000081040EA012006B214B12046FDF713FF43
:1041300017494968C88802F029FB15490190496868
:10414000B1F9080002F019FB8346304602F015FB76
:104150005946009002F082F98246019902F0B6F9C0
:1041600081461F4902F028F980464FF08F4102F046
:104170007BF9074602F00FFB28600020BDE710B571
:1041800088B004461CB94FF0FF3008B010BD29E0DC
:10419000E4000020556E737570706F727465642052
:1041A000736F6674776172652070726F6475637483
:1041B000207265762025642E0A0000009082000897
:1041C00048616C662073656E736974697669747989
:1041D000207061727420666F756E642E0A00000094
:1041E00000000C42206830B9606820B9A06810B99E
:1041F000002008B010BDFA494968087806AB0322D0
:104200001146FEF74BF810B14FF0FF30F1E79DF883
:104210001800082101EB201000F00F00ADF800009D
:104220009DF8190001EB201000F00F00ADF802001E
:104230009DF81A0001EB201000F00F00ADF804000B
:1042400020684100BDF90000403091FBF0F000B261
:10425000ADF8100060684100BDF90200403091FBEC
:10426000F0F000B2ADF81200A0684100BDF9040002
:10427000403091FBF0F000B2ADF81400D849496825
:10428000087806AB06221146FEF708F810B14FF089
:10429000FF30AEE79DF819009DF8181040EA0120A4
:1042A00000B2ADF808009DF81B009DF81A1040EA16
:1042B000012000B2ADF80A009DF81D009DF81C1009
:1042C00040EA012000B2ADF80C00BDF81000BDF8C6
:1042D0000810084400B2ADF81000BDF81200BDF897
:1042E0000A10084400B2ADF81200BDF81400BDF881
:1042F0000C10084400B2ADF81400BDF81000000A1C
:104300008DF81800BDF81000C0B28DF81900BDF886
:104310001200000A8DF81A00BDF81200C0B28DF824
:104320001B00BDF81400000A8DF81C00BDF8140035
:10433000C0B28DF81D00AA494968087806AB06226C
:104340001146FDF75CFF10B14FF0FF3051E7002040
:104350004FE70146A248007A30B1012807D0022871
:1043600009D003280FD10AE0FA2008800EE04FF4AC
:10437000FA7008800AE04FF47A70088006E04FF483
:10438000FA60088002E00020088000BF00BF002023
:10439000704701469248407A30B1012807D0022880
:1043A00008D003280CD108E0022008700BE004209C
:1043B000087008E00820087005E01020087002E08E
:1043C0004FF0FF30704700BF8548C07C18B10878B7
:1043D0004006000E08700020F4E701468048C07ACD
:1043E000082817D2DFE800F01704070A0D10131889
:1043F000BC20088013E06220088010E02A2008809A
:104400000DE0142008800AE00A20088007E005205B
:10441000088004E000BF00BF0020088000BF00BF8C
:104420000020704701466E4890F8240010B14FF00C
:10443000FF3070476A48C08908800020F9E70146CC
:1044400000200880401E704701464FF0FF30704743
:1044500001466348007A30B1012807D0022808D00D
:1044600003280CD108E05F4808600BE05E48086054
:1044700008E05E48086005E05D48086002E04FF033
:10448000FF30704700BF0020FBE701465448407AE8
:1044900030B1012808D002280AD0032810D10BE03F
:1044A0004FF4804008800EE041F69C7008800AE0DE
:1044B0004FF48050088006E04FF40060088002E06E
:1044C0004FF0FF30704700BF4548C07C10B10888EE
:1044D000401008800020F5E701464148007C087044
:1044E0000020704701463E48807A10B101200870D4
:1044F00001E0002008700020704738B504463848B5
:10450000807A10B94FF0FF3038BD354A1268117CFF
:10451000334A526810786B460222FDF7BFFE10B195
:104520004FF0FF30F0E79DF801009DF8001040EAE1
:10453000012000B220800020E6E72DE9FE4F07466B
:10454000884692461D46DDF830B0002600242448F7
:1045500090F8240010B1601EBDE8FE8F0020287086
:104560001F48807A10B94FF0FF30F5E71C48007CF7
:1045700010B94FF0FF30EFE71948007C00F0400021
:1045800008B1B01CC6B21648007C00F0200008B18B
:10459000B01CC6B21248007C00F0100008B1B01C7C
:1045A000C6B20F48007C00F0080008B1B01DC6B2CA
:1045B0000B4A1268917A0A4A526810786B460222B6
:1045C000FDF76CFE10B14FF0FF30C5E79DF801001C
:1045D0009DF8001040EA0129B1450BDA0020BBE745
:1045E000E400002000000343000083423333034211
:1045F00033338341FC4840684088B9EB600F17DDD6
:10460000F94A1268517CF84A526810786B460122C8
:10461000FDF744FE10B14FF0FF309DE79DF800001C
:1046200000F0100020B1FFF78DF96FF0010093E763
:104630005046FDF790FCEC4A1268D17AEA4A52687B
:1046400010786B463246FDF729FE10B14FF0FF306F
:1046500082E799FBF6F0401E8BF8000000202870DE
:10466000B4422AD0E048007C00F0080028B3601C67
:104670001DF800001DF8041040EA012000B2A8F85F
:104680000000E01C1DF80010A01C1DF8000041EA0D
:10469000002000B2A8F80200601D1DF80010201DC7
:1046A0001DF8000041EA002000B2A8F804002878B4
:1046B00040F008002870A01D84B2B44213D0CA484C
:1046C000007C00F0400070B1601C1DF800001DF877
:1046D000041040EA012000B23880287840F0400001
:1046E0002870A01C84B2B44213D0BF48007C00F0F4
:1046F000200070B1601C1DF800001DF8041040EA95
:10470000012000B27880287840F020002870A01C9A
:1047100084B2B44213D0B448007C00F0100070B1F1
:10472000601C1DF800001DF8041040EA012000B2D2
:10473000B880287840F010002870A01C84B20020B7
:104740000AE7F8B504460F461646A74890F8240035
:1047500010B94FF0FF30F8BDA348807A10B94FF080
:10476000FF30F8E7A04A1268917A9F4A52681078A1
:104770006B460222FDF792FD10B14FF0FF30EAE7E1
:104780009DF801009DF8001040EA0125A54203DADA
:1047900000203070401EDEE7934840684088B5EB4B
:1047A000600F17DD904A1268517C8F4A526810786A
:1047B0006B460122FDF772FD10B14FF0FF30CAE7E2
:1047C0009DF8000000F0100020B1FFF7BBF86FF07B
:1047D0000100C0E7E2B2844B1B68D97A824B5B6868
:1047E00018783B46FDF75AFD10B14FF0FF30B2E7A5
:1047F00095FBF4F0401E30700020ACE701467A488B
:1048000080F82210002070477CB50546764949683B
:10481000087801AB04220D21FDF740FD08B1072007
:104820007CBD9DF80700C0F301109DF8041001F055
:10483000E00140EAE1008DF800009DF80700C0F3B8
:1048400081009DF8051001F0E00140EAE1008DF8DB
:1048500001009DF8070000F003009DF8061001F02C
:10486000E00140EAE1008DF8020000241CE01DF8A0
:10487000040018B9002045F8240013E05B4845F80F
:10488000240006E055F82400594901F0EDFD45F8F3
:1048900024001DF80400401EC0B20DF804000028DA
:1048A000F0D100BF601CC4B2032CE0DB0020B7E7EE
:1048B0002DE9FE4F06460F4600256846FFF7A4FF88
:1048C000002442E056F8240057F82410A0EB010A17
:1048D000BAF1000F01DB514601E0CAF100010846C0
:1048E00001F04BFF83464FF08F4101F0EFFD804612
:1048F0005DF82400002101F0ABFF16D05DF8241014
:10490000404601F0E3FD82464FF07E5101F0A6FDE6
:10491000814629F0004A3748416A504601F0A2FF1B
:1049200012D20120A04005430EE03248C169404642
:1049300001F08EFF05D32F48016A404601F092FF37
:1049400002D20120A0400543641C032CBADB284698
:10495000BDE8FE8F2DE9FC5F06460F460025224983
:104960004968087801AB03220D21FDF797FC10B1CF
:104970000720BDE8FC9F9DF8040000F01F008DF8A3
:1049800004009DF8050000F01F008DF805009DF85B
:10499000060000F01F008DF80600002462E056F8C3
:1049A000240057F82410A0EB010BBBF1000F01DB32
:1049B000594601E0CBF10001084601F0DEFE4FF060
:1049C0008F41009001F082FD814601A8005DC0B3D7
:1049D0000849086801F0DAFE83465946064801F0A6
:1049E00075FD80460FE00000E40000207B14AE3E21
:1049F0001D5A843F8075000800B04C45FE49404672
:104A000001F032FD804601A8005D401EC0B201A940
:104A100008550028F2D14146484601F057FD83462B
:104A20004FF07E5101F01AFD82462AF0004BF34808
:104A30008169584601F016FF13D20120A0400543BA
:104A40000FE0FFE7ED480169484601F001FF05D39B
:104A5000EA484169484601F005FF02D20120A04022
:104A60000543641C032C9ADB284682E72DE9F04FAE
:104A700087B005460C46914601208DF810000020B5
:104A80008DF81100DE4A1268917CDD4A5268107878
:104A900004AB0222FDF7B3FB20B14FF0FF3007B0AB
:104AA000BDE8F08FC820FDF74AFA00208DF810000D
:104AB000D34A1268D17BD24A5268107804AB0122E3
:104AC000FDF79DFB10B14FF0FF30E8E7CC4A1268CC
:104AD0005179CB4A5268107804AB0122FDF78FFB65
:104AE00010B14FF0FF30DAE7C54A1268917CC44A32
:104AF0005268107804AB0122FDF781FB10B14FF032
:104B0000FF30CCE7BE4A1268D17DBD4A52681078AA
:104B100004AB0122FDF773FB10B14FF0FF30BEE78D
:104B2000B74A12681179B64A5268107804AB01226C
:104B3000FDF765FB10B14FF0FF30B0E70C208DF8AA
:104B40001000AF4A12681179AD4A5268107804AB70
:104B50000122FDF754FB10B14FF0FF309FE70F200B
:104B6000FDF7EDF9A648806A407A8DF81000A44A56
:104B700012689178A24A5268107804AB0122FDF7BE
:104B80003EFB10B14FF0FF3089E79D48806A007A04
:104B90008DF810009A4A12685178994A5268107834
:104BA00004AB0122FDF72BFB10B14FF0FF3076E78D
:104BB000B9F1000F07D09248806A807A40F0E00097
:104BC0008DF8100004E08E48806A807A8DF810001D
:104BD0008B4A126891798A4A5268107804AB012294
:104BE000FDF70DFB10B14FF0FF3058E7B9F1000FA2
:104BF00007D08348806AC07A40F0E0008DF810004A
:104C000003E07E48C07A8DF810007D4A1268D179A1
:104C10007B4A5268107804AB0122FDF7F0FA10B11C
:104C20004FF0FF303BE7B9F1000F02D0C820FDF78D
:104C300086F940208DF81000714A12681179704A87
:104C40005268107804AB0122FDF7D9FA10B14FF089
:104C5000FF3024E778208DF81000694A12685179F6
:104C6000674A5268107804AB0122FDF7C8FA10B108
:104C70004FF0FF3013E761498889FDF760F90020A4
:104C80008DF810005E4A126851795D4A52681078BA
:104C900004AB0122FDF7B3FA10B14FF0FF30FEE68E
:104CA000574A1268917A564A5268107804AB022229
:104CB000FDF7F4FA10B14FF0FF30F0E69DF8110067
:104CC0009DF8101040EA012B0C209BFBF0F0C6B2BF
:104CD0000020A86068602860A06060602060824654
:104CE00065E0474A1268D17A454A5268107804ABA9
:104CF0000C22FDF7D3FA10B14FF0FF30CFE69DF84C
:104D000011009DF8101040EA012000B2ADF8080033
:104D10009DF813009DF8121040EA012000B2ADF892
:104D20000A009DF815009DF8141040EA012000B219
:104D3000ADF80C00BDF90810206808442060BDF9EA
:104D40000A10606808446060BDF90C10A06808444F
:104D5000A0609DF817009DF8161040EA012000B2EF
:104D6000ADF800009DF819009DF8181040EA0120E8
:104D700000B2ADF802009DF81B009DF81A1040EA41
:104D8000012000B2ADF80400BDF900102868084405
:104D90002860BDF90210686808446860BDF9041015
:104DA000A8680844A8600AF1010000F0FF0AB245B3
:104DB00097DB1248D0F800C02868C117090441EAFF
:104DC0001041070462460023384601F0A5FA324636
:104DD0000023CDE9020101F09FFA28600748D0F8CE
:104DE00000C06868C117090441EA1041070462461F
:104DF0000023384606E0000054E3853F8075000834
:104E0000E400002001F088FA32460023CDE90201D7
:104E100001F082FA6860FE48D0F800C0A868C117A7
:104E2000090441EA1041070462460023384601F0B4
:104E300073FA32460023CDE9020101F06DFAA86051
:104E4000F348D0F804C02168C817000440EA1148AC
:104E50000F04624600233846414601F05DFA3246AF
:104E60000023CDE9020101F057FA2060E848D0F8AC
:104E700004C06068C117090441EA10410704624692
:104E80000023384601F048FA32460023CDE90201FA
:104E900001F042FA6060DE48D0F804C0A068C11793
:104EA000090441EA1041070462460023384601F034
:104EB00033FA32460023CDE9020101F02DFAA06059
:104EC000A068002804DDA068A0F58030A06003E0A1
:104ED000A06800F58030A0600020E0E538B5044609
:104EE000CC4890F82400A04201D1002038BD24B362
:104EF000C84890F8250010B94FF0FF30F6E70020C1
:104F0000FEF75AFB0020FEF779FCC249C88CFEF779
:104F1000DEFE00200090BF49496808786B460122F8
:104F20002321FDF76CF90121BA4880F824100120F3
:104F3000FEF742FBFEF706FD13E00020FEF73CFB08
:104F4000B448007C0090B349496808786B46012258
:104F50002321FDF754F90021AE4880F82410FEF714
:104F6000F1FC0020C2E72DE9F04F8DB083460F46DB
:104F700002200C90A74890F8240020B10020FFF7F1
:104F8000ADFF012600E0002603A8FFF7E2F905A81F
:104F9000FFF7FFF901A8FFF720FA02A8FFF742FA8E
:104FA0009C4890F80AA004A8FFF796FA002407E0AE
:104FB000002239465846FFF759FD00B902E0641C4B
:104FC000022CF5DB00BF022C01D1002528E00024D3
:104FD00007E0012206A909A8FFF748FD00B902E091
:104FE000641C022CF5DB00BF022C01D1002517E068
:104FF00006A93846FFF75CFC00F0FF0809A95846EF
:10500000FFF7A8FC00F0FF090025B9F1000F01D15E
:1050100045F00105B8F1000F01D145F0020500BFD0
:10502000FF207C490872FF217A484172C1724FF615
:10503000FF71C181FF218172017401210173BDF8EB
:105040000C00FEF7D2FE9DF81400FEF78CFEBDF8B2
:105050000400FEF790FDBDF80800FEF738FE50464C
:10506000FEF767FB9DF81000FEF750FD16B101201A
:10507000FFF734FF28460DB0BDE8F08FF8B50446C1
:105080000D46164616B94FF0FF30F8BD6148807ADC
:1050900010B94FF0FF30F8E720128DF80000E0B2B1
:1050A0008DF801009DF8010028445A494968498952
:1050B000884202DD4FF0FF30E7E7564A1268117E62
:1050C000544A526810786B460222FDF798F810B1E6
:1050D0004FF0FF30D9E7EAB24E4B1B68597D4D4B7C
:1050E0005B6818783346FDF78AF810B14FF0FF304F
:1050F000CBE70020C9E7F8B504460D46164616B9B9
:105100004FF0FF30F8BD4348807A10B94FF0FF30C0
:10511000F8E720128DF80000E0B28DF801009DF84C
:10512000010028443B4949684989884202DD4FF023
:10513000FF30E7E7374A1268117E364A5268107826
:105140006B460222FDF75BF810B14FF0FF30D9E754
:10515000EAB2304B1B68597D2E4B5B68187833469A
:10516000FDF79CF810B14FF0FF30CBE70020C9E706
:105170002DE9F04385B005460E46904699462548F0
:1051800090F8250020B14FF0FF3005B0BDE8F08366
:1051900016B94FF0FF30F8E7002423E0281B102851
:1051A00001DD102000E0281B87B232193946204665
:1051B000FFF764FF10B14FF0FF30E6E701AA394670
:1051C0002046FFF798FF10B14FF0FF30DDE73019B0
:1051D0003A4601A901F0E3F810B16FF00100D4E7FD
:1051E000E01984B2AC42D9DB4FEA28208DF80000E8
:1051F00008F0FF008DF80100064A1268917E054A0A
:10520000526810786B460222FCF7F9FF38B103E0D0
:1052100080750008E40000204FF0FF30B5E7012161
:105220008A4880F82510A0F826900020ADE70146B6
:10523000864890F8240008700020704702464FF01E
:10524000FF30704701464FF0FF307047F8B5054614
:105250000F461446002C70D0B5F5FF5F01DDFF2628
:1052600005E0202D01DA012601E0C5F3471607B954
:105270000127282C02DD4FF0FF30F8BD7348407D38
:1052800028BB724890F8240038B10020FFF726FEB2
:1052900001216E4880F8201003E000216B4880F85F
:1052A00020106A481630FFF754F868481830FFF7A6
:1052B00070F866481A30FFF790F864481C30FFF722
:1052C000B1F86248817A81771F30FFF705F9002035
:1052D000FEF772F90020FEF78DFC00208DF800002B
:1052E0005A4A12689178594A526810786B460122DE
:1052F000FCF785FF10B14FF0FF30BEE740208DF87E
:105300000000524A1268D17B504A526810786B46AE
:105310000122FCF774FF00B165E08DF800608DF8A4
:1053200001704A4A1268117A484A526810786B46EE
:105330000222FCF764FF08B155E047E00520FCF7C6
:10534000FEFD4248407A072101EBC000C0B28DF853
:1053500000003E4A1268D1793C4A526810786B4688
:105360000122FCF74CFF00B13DE020208DF8000049
:10537000012C03D100208DF801000EE0052C03DC88
:1053800001208DF8010008E0142C03DC02208DF8C8
:10539000010002E003208DF801009DF801000721C3
:1053A00001EB8010C0B28DF80100284A1268917C90
:1053B000264A526810786B460222FCF720FF00B1A3
:1053C00011E0012121484175002056E71F4A16329D
:1053D000002103E0505C00B105E0491C0C29F9D321
:1053E0004FF0FF3049E7FF2018490872FF211748A6
:1053F0004172C1724FF6FF71C181FF218172017448
:10540000012101730146887FFEF793F90F49C88A8D
:10541000FEF7EBFC0D49087EFEF7A5FC0B49488B17
:10542000FEF7A9FB0949888BFEF751FC0749C87FA5
:10543000FEF76CFB054890F8200010B10120FFF743
:105440004DFD002101484175002016E7E4000020D1
:1054500010B5C8234FF48062F74940F6F630FFF7E5
:1054600087FE10BD10B586B00446F4A00068039016
:10547000F3A000680290F3A000680190F2A0006819
:10548000009004F0030003A9085C8DF8140003A841
:10549000C4F3C101405C8DF8150003A8C4F3811169
:1054A000405C8DF8160004F0030002A9085C8DF83A
:1054B000100002A8C4F3C101405C8DF8110002A8DD
:1054C000C4F38111405C8DF8120005AA032140F25B
:1054D0002640FFF7D3FD18B14FF0FF3006B010BDE6
:1054E00004AA032140F22A40FFF7C8FD10B14FF093
:1054F000FF30F3E7019805900098049004F0040051
:1055000058B19DF8140040F001008DF814009DF88A
:10551000100040F001008DF8100004F0200058B198
:105520009DF8150040F001008DF815009DF8110060
:1055300040F001008DF8110004F4807058B19DF81E
:10554000160040F001008DF816009DF8120040F0A2
:1055500001008DF8120005AA03214FF48860FFF7BF
:105560008DFD10B14FF0FF30B8E704AA032140F2DF
:105570003140FFF783FD10B14FF0FF30AEE7B34885
:1055800004810020AAE71FB50446B048007A00F065
:10559000030054F820000190AC48007A00F00400A9
:1055A00010B1019840420190A848007AC0F3C100B0
:1055B00054F820000290A548007A00F0200010B1B5
:1055C000029840420290A148007AC0F3811054F83A
:1055D000200003909D48008900F4807010B103986A
:1055E000404203909A49019880FB0101800F40EAF4
:1055F000810001909649029880FB0110820042EAE6
:10560000917002909249039880FB0110820042EA57
:10561000917003900198000E8DF800000198000C25
:105620008DF801000198000A8DF802000198C0B2BF
:105630008DF803006A4604214FF47470FFF71EFDD5
:1056400018B14FF0FF3004B010BD0298000E8DF875
:1056500000000298000C8DF801000298000A8DF8F5
:1056600002000298C0B28DF803006A4604214FF48C
:105670007570FFF703FD10B14FF0FF30E3E70398BB
:10568000000E8DF800000398000C8DF801000398BF
:10569000000A8DF802000398C0B28DF803006A4634
:1056A00004214FF47670FFF7E9FCCCE770B588B0C1
:1056B000064601A8FEF7E9FEBDF804000021C90373
:1056C00041EA5045C4036148007A00F0030056F8EF
:1056D000200005905D48007A00F0040010B10598A4
:1056E000404205905948007AC0F3C10056F82000A6
:1056F00006905648007A00F0200010B1069840420B
:1057000006905248007AC0F3811056F820000790A6
:105710004E48008900F4807010B10798404207900D
:105720000598C117A0FB042301FB043100FB051001
:10573000810041EA927005900698C117A0FB0423EE
:1057400001FB043100FB0510810041EA92700690D4
:105750000798C117A0FB042301FB043100FB0510CF
:10576000810041EA927007900598000E8DF80800BC
:105770000598000C8DF809000598000A8DF80A00BC
:105780000598C0B28DF80B000698000E8DF80C003D
:105790000698000C8DF80D000698000A8DF80E0092
:1057A0000698C0B28DF80F000798000E8DF8100013
:1057B0000798000C8DF811000798000A8DF8120068
:1057C0000798C0B28DF8130002AA0C214FF425707F
:1057D000FFF754FC08B070BD30B585B004461DA27B
:1057E00007CA02AB07C3C82C03DD4FF0FF3005B07A
:1057F00030BDC82090FBF4F0401E85B2280A8DF819
:105800000000E8B28DF801006A46022140F216203D
:10581000FFF734FC10B14FF0FF30E8E702AA0C218B
:1058200040F6C120FFF72AFC10B14FF0FF30DEE751
:10583000064884810020DAE7A87500084CCD6C008A
:105840000CC92C0036567600264666003001002032
:1058500009E3CA02FEF2ABC4AAF1DFDFBBAFDFDFB0
:105860000146FC4880890880002070472DE9FC47EC
:1058700006460F4606F0070010B1B7F5C86F03DD06
:105880004FF0FF30BDE8FC87384600F07FFF8146CF
:10589000F14900F01BFE80466846FEF77AFD9DF850
:1058A0000000022806D0042816D0082826D0102888
:1058B00048D135E04FF08D41404600F0D5FD81469E
:1058C00000F082FF84B2E549404600F0CDFD8146FC
:1058D00000F07AFF85B238E04FF08C41404600F08E
:1058E000C3FD814600F070FF84B2DD49404600F000
:1058F000BBFD814600F068FF85B226E04FF08B418A
:10590000404600F0B1FD814600F05EFF84B2D5490B
:10591000404600F0A9FD814600F056FF85B214E034
:105920004FF08A41404600F09FFD814600F04CFF59
:1059300084B2CD49404600F097FD814600F044FF17
:1059400085B202E04FF0FF309CE700BF20128DF8D7
:105950000400E0B28DF8050028128DF80600E8B2C8
:105960008DF8070006F00100A0B101AA02214FF452
:10597000EA70FFF783FB10B14FF0FF3082E70DF1C3
:10598000060202214FF49270FFF778FB10B14FF03E
:10599000FF3077E706F00200A0B101AA02214FF420
:1059A000EC70FFF76BFB10B14FF0FF306AE70DF1C1
:1059B000060202214FF49470FFF760FB10B14FF024
:1059C000FF305FE706F00400A0B101AA02214FF406
:1059D000EE70FFF753FB10B14FF0FF3052E70DF1BF
:1059E000060202214FF49670FFF748FB10B14FF00A
:1059F000FF3047E7002045E738B504460020009017
:105A000004F0010020B19DF8000040F0300000904B
:105A100004F0020020B19DF8000040F00C0000905E
:105A200004F0040020B19DF8000040F00300009055
:105A30006A4601214FF4A470FFF720FB38BD38B54A
:105A40000446012C01DA012402E0042C00DD0424C8
:105A5000601EC0B200906A46012140F24F10FFF76D
:105A60000DFB38BD38B50446052094FBF0F085B237
:105A700028128DF80000E8B28DF801006A46022174
:105A80004FF4EF70FFF7FAFA38BD38B50446052039
:105A900094FBF0F085B228128DF80000E8B28DF882
:105AA00001006A4602214FF4ED70FFF7E7FA38BDB6
:105AB000F8B505460E464FF47A7095FBF0F000FB02
:105AC00006F4200E8DF80000200C8DF80100200A4D
:105AD0008DF80200E0B28DF803006A4604214FF40D
